:100000003BC0CBC154C053C052C051C050C04FC000
:100010004EC04DC076C64BC04AC049C048C047C05C
:1000200046C045C044C00902120001010080190900
:10003000040000000000000012011001FF00000891
:10004000C016DC050401010200010E035500530037
:1000500042006100730070001C0377007700770096
:100060002E00660069007300630068006C002E00BB
:10007000640065000403090411241FBECFE5D4E029
:10008000DEBFCDBF10E0A0E6B0E0E6EDF3E102C0D8
:1000900005900D92A236B107D9F721E0A2E6B0E0B3
:1000A00001C01D92A03BB207E1F76AD992C9A8CF5F
:1000B0001F93CF93DF9360918A01635067FF36C02F
:1000C0008091610084FF04C0909160009F3F59F4CB
:1000D00094E102C0915011F186B38370D9F3DF919E
:1000E000CF911F910895192F993008F05DC0892F85
:1000F000811B8093600080917A0128E88227809399
:100100007A01911128C060E08BE791E042D184E050
:100110009FEF9093600080936100DACF10928B0183
:1001200010928501DF91CF911F9108952091870151
:100130008CE090E0821B9109EC01C257DE4F809168
:1001400086018D3209F43EC08091620087FD60C057
:1001500010928A01B5CF8091620087FD27C0E0919F
:100160008801F091890186FF5DC08FEF810F90E0DB
:1001700001968E0F9F1F2BE731E04491D9014C93DC
:100180002F5F3F4F31968E179F07B9F790938901E4
:1001900080938801612F8BE791E0FBD084E0810F91
:1001A000183009F4B8CFB4CF18E0A1CF612F8BE796
:1001B00091E07CD7182F893068F38FEF809360002F
:1001C0008EE1A9CF683021F683EC80937A018AE52D
:1001D000809361001092620088818076A1F52A8167
:1001E00010928301998191113DC01092840183E89E
:1001F00091E0909389018093880182E09F81911121
:1002000004C09E81981708F4892F80936000A0CFC6
:10021000CE01C8D78F3F11F1882309F499CF1092EE
:10022000600096CFABE7B1E08FEF810F90E00196D1
:100230008E0F9F1F9F013196E90128812D93E817AA
:10024000F907C1F7A3CFCE0175D58F3FB9F69881D5
:1002500097FD8E8190E890936200D7CF8EE18093D6
:10026000610076CF953079F09630F1F09830A1F0BA
:10027000993029F19A3061F123E831E03093890116
:1002800020938801BBCF20938B0123E831E030938A
:10029000890120938801B2CF8DE891E09093890184
:1002A0008093880181E0AACF9B81913051F19230F7
:1002B00099F19330A9F090E4909362009FCF20933E
:1002C0008D0123E831E0309389012093880196CF96
:1002D00083E891E0909389018093880181E08ECF3B
:1002E000222381F1213019F1223029F78AE490E0AC
:1002F000909389018093880180E4809362008EE06E
:100300007DCF88E390E0909389018093880180E419
:100310008093620082E172CF86E290E0909389013F
:100320008093880180E48093620082E167CF88E552
:1003300090E0909389018093880180E4809362002B
:100340008CE15CCF84E790E09093890180938801F1
:1003500080E48093620084E051CF85B7836085BFDD
:100360008BB780648BBF0895A82FB92F80E090E0F1
:1003700041E050EA609530E009C02D9182279795C1
:10038000879510F084279527305EC8F36F5FA8F338
:100390000895EADF8D939D930895CF93CFB7CF93C0
:1003A000C395B09BE9F7B09B09C0B09B07C0B09B59
:1003B00005C0B09B03C0B09B01C0A1C0DF93C0913A
:1003C0008701DD27C257DE4FB09B02C0DF91EBCF24
:1003D0002F930F931F9306B32FEF00FB20F94F933A
:1003E0003F9316B34FEF012700FB21F93BE031C0EB
:1003F0004E7F012F16B3216028C0102F4D7F226041
:10040000000006B329C04B7F2460012F000016B303
:100410002BC016B3477F28602AC04F7E06B32061E9
:100420002CC04F7D16B320622FC04F7B06B32064D3
:1004300032C0422706B349934FEF0000102710FB4C
:1004400020F916B31370C9F1297F91F2012700FB3F
:1004500021F906B3237F89F2315058F1102710FBA0
:1004600022F916B3277E79F2012700FB23F92F7CAE
:1004700081F206B3102710FB24F92F7971F200C026
:1004800016B3012700FB25F92F7359F200C006B3FC
:10049000102710FB26F9223040F200C016B30127C6
:1004A00000FB27F9243028F64F77206816B30000A8
:1004B000F9CF10E41ABF002717C03B503195C31B7A
:1004C000D04010E41ABF0881033CE9F00B34D9F0A6
:1004D000209185011981110F1213EDCF093641F1D9
:1004E0000D3211F0013E39F700938C013F914F918D
:1004F0001F910F912F91DF91CAB7C6FD51CFCF91B8
:10050000CFBFCF91189520918C01222379F31091C0
:100510008A01112311F5343012F130938A012093AE
:100520008601109187013BE0311B3093870117C092
:1005300000918A0101308CF40AE53091610034FDAC
:1005400010C000936100CAE7D1E00FC02795A8F45E
:100550005150A9F4220F0000F9CF4AE503C042ED43
:1005600001C0432FC4E1D0E032E017B31360C09A5A
:1005700017BB08B320E413E05F93012756E008BBE4
:10058000279520F4515021F4220FF9CF012756E08E
:1005900000003B5A08BBD0F2279528F4515029F4AB
:1005A000220F0000F9CF012756E0279508BB20F461
:1005B000515021F4220FF9CF012756E0299133231E
:1005C00008BB21F60C7F10918B01110FC651D04052
:1005D00008BB11F01093850110E41ABF016017B336
:1005E0001C7F402F4C7F5F9100C000C008BB17BB31
:1005F00048BB7CCF482F58E080E047FD18C0C39827
:10060000440F880FB4998F5FC59A32B72091AA0121
:1006100092B7931B9217E0F3C59832B72091AA01C5
:1006200092B7931B9217E0F3515039F70895C39A8C
:10063000E7CF8FB9779BFECF8FB10895CF93DF932C
:1006400000D000D0CDB7DEB769837A838B839C83DB
:10065000DC01CB0121E1B695A795979587952A9561
:10066000D1F72091A901281709F18093A901E09100
:10067000A601F091A7018DE40995E091A601F09102
:10068000A70180E00995E091A601F091A701809172
:10069000A9010995E091A601F091A70180E00F90D2
:1006A0000F900F900F90DF91CF9109940F900F90C2
:1006B0000F900F90DF91CF910895C29A0895C2983C
:1006C00008959091A4019E7F21E030E0903E11F0CA
:1006D00030E020E0C90108958091A4018E7F803E22
:1006E00011F0C2980895E9CF8091A4018E7F803ED9
:1006F00011F0C29A0895E3CF8091A8018DB980913D
:10070000A5018EB90895811110C089E193E09093FD
:10071000A7018093A60181E08093AA0182E58093DE
:10072000A80181E08093A50108958830F0F029E1C7
:1007300033E03093A7012093A6011092A50191E028
:100740009093AA018B3069F040F4883059F18930D8
:1007500029F782E58093A80108958C30F9F69093EB
:10076000A50181E58093A80108952AEF32E0309336
:10077000A7012093A601853009F140F48330D1F020
:10078000843051F488E18093AA010895863079F08D
:1007900083E08093AA010895823041F480E680933B
:1007A000AA01089583E58093A801089580EC8093C1
:1007B000AA01089580E38093AA0108958CE08093B4
:1007C000AA01089522B79091AA0182B7821B8917C6
:1007D000E0F308958093A40187B38C6287BB809176
:1007E000A4018E7F803E31F1C298C59822B79091C6
:1007F000AA0182B7821B8917E0F38091A4018E7F42
:10080000803E59F1C29A22B79091AA0182B7821B09
:100810008917E0F38091A4018E7F803E69F0C29831
:100820008091A6019091A7018951934069F010929F
:10083000A901089542DFD9CF40DF8091A6019091B0
:10084000A7018951934099F78091A8018DB98091B2
:10085000A5018EB91092A901089531DFD4CF87B3D5
:10086000837D87BB8091A4018E7F803E31F0C29A48
:1008700088B3877D88BB1DB8089521DF88B3877D45
:1008800088BB1DB8089580E187BB8091A4018E7F4D
:10089000803E21F0C29A80EC8DB9089510DF80EC83
:1008A0008DB90895CF93DF93C0E2E091A601F09156
:1008B000A7018CEA0995E091A601F091A70183E5D3
:1008C0000995E091A601F091A70180E00995D82F44
:1008D000E091A601F091A70180E009959091A40113
:1008E0009E7F903E91F1D33591F11DB822B7909142
:1008F000AA0182B7821B8917E0F38091A4018E7F41
:10090000803E59F1C29A22B79091AA0182B7821B08
:100910008917E0F38091A4018E7F803EE1F0C298B8
:1009200022B79091AA0182B7821B8917E0F38091C8
:10093000A6019091A7018951934089F0C15009F017
:10094000B4CF81E0DF91CF910895893671F680E0D0
:10095000DF91CF910895B1DEE3CFB1DED4CF8091A6
:10096000A8018DB98091A5018EB9E8CFCF93DF930F
:1009700000D000D0CDB7DEB769837A838B839C83A8
:1009800069817A818B819C8159DE8981880F880FEA
:10099000880F8870E091A601F091A7018062099507
:1009A00089819A81AB81BC8129E0B695A7959795FD
:1009B00087952A95D1F7E091A601F091A7010995B5
:1009C00089819A81AB81BC81B695A79597958795CA
:1009D000E091A601F091A7010995E091A601F0919F
:1009E000A70180E00F900F900F900F90DF91CF91B3
:1009F0000994CF93DF9300D000D000D0CDB7DEB7FD
:100A000069837A838B839C834D832E8369817A816A
:100A10008B819C8113DE8981880F880F880F8870F5
:100A2000E091A601F091A7018064099589819A81DE
:100A3000AB81BC8129E0B695A795979587952A95B6
:100A4000D1F7E091A601F091A701099589819A81DA
:100A5000AB81BC81B695A79597958795E091A60146
:100A6000F091A7010995E091A601F091A7018D8170
:100A700009958E818823E1F09D819F3719F182B716
:100A80008D839EE19E8369817A818B819C816EDF5B
:100A90008F3771F482B79D81891B8D33A0F382B7A4
:100AA0008D839E8191509E839111EDCF81E001C095
:100AB00080E026960FB6F894DEBF0FBECDBFDF9163
:100AC000CF9108958FE0A8D080E0F3CFCF93DF934C
:100AD00000D000D000D0CDB7DEB769837A838B8396
:100AE0009C834D8369817A818B819C81A7DDE09114
:100AF000A601F091A7018CE4099589819A81AB81C7
:100B0000BC8129E0B695A795979587952A95D1F749
:100B1000E091A601F091A701099589819A81AB81A5
:100B2000BC81B695A79597958795E091A601F09120
:100B3000A7010995E091A601F091A70180E0099530
:100B40008D818F3F19F192B79D838EE18E836981EC
:100B50007A818B819C810ADF8F3FB1F482B79D81BE
:100B6000891B8D33A0F382B78D839E8191509E8324
:100B70009111EDCF81E026960FB6F894DEBF0FBE3F
:100B8000CDBFDF91CF91089580E0F5CF8FE044D0C5
:100B900080E0F1CFCF93DF93EC01E091A601F091DB
:100BA000A70180EA0995E091A601F091A7018D2F98
:100BB0000995E091A601F091A7018C2F0995E0918C
:100BC000A601F091A70180E0DF91CF9109941F93D6
:100BD000CF93DF93D82F192FC62FE091A601F09164
:100BE000A70180EC0995E091A601F091A701812F62
:100BF0000995E091A601F091A7018D2F0995E0914B
:100C0000A601F091A7018C2F09958EE105D080E017
:100C1000DF91CF911F910895882349F030E022B7EA
:100C200092B7921B9C33E0F33F5F8313F8CF089594
:100C3000BD9ABB98C39A50E217D05A95E9F7089528
:100C4000AC0188E605D0842F03D089E601D0852F3A
:100C50000FD028E030E0382780FB869506D02A9513
:100C6000D1F730FB02D000D06894BB98C39A16F03D
:100C7000C398BB9AE091AC01F091AD013197F0F7C8
:100C8000C59AE6B3E3FBE091AC01F091AD01319779
:100C9000F0F7C598089520ECE7DF46F42A95E1F7D0
:100CA00080E02AE1E5DF2A95E9F7DECF28E030E0B1
:100CB000DBDF869587F938272A95D1F7D5DF27F925
:100CC000322772F3D1DFD0CFDB01742FB9DF84E29A
:100CD000BFDFE1DF8D937A95D1F70895DB01742FA3
:100CE000AFDF83EFB5DF8DE1B3DF84E6B1DF8D9158
:100CF000AFDF82E7ADDFCFDF8078D9F77A9589F76C
:100D0000089578948F938FB78F939F93EF93FF936A
:100D1000809170009FB1E82FF0E0EE58FF4F908374
:100D20008F5F80937000FF91EF919F918F918FBFA4
:100D30008F911895CF93DF93EC0189818130D9F1A0
:100D4000823009F471C0833009F44CC0843009F456
:100D50006FC0873009F489C0853009F4A3C086309C
:100D600009F4A5C0883009F410C1893009F4FCC029
:100D70008A3009F42DC18B3009F4CCC08C3009F4D1
:100D80002EC18D3009F440C18E3009F442C18F303C
:100D900009F443C1803109F459C18F3709F46FC197
:100DA000803209F477C1823209F47AC1813209F4C0
:100DB000C2C080E00BC09A9B12C080916E00A3DC81
:100DC00010926D00A9988A8105DD80E022E731E06C
:100DD0003093890120938801DF91CF91089585E0B8
:100DE00092DCEECFE091A601F091A7018A810995EE
:100DF00080937201E091A601F091A7018B81099582
:100E000080937301E091A601F091A7018C8109956F
:100E100080937401E091A601F091A7018D8109955D
:100E20008093750184E0D2CF1ADDA99A80E0CECFFD
:100E300080916D0081110EC08A819B81092E000C6A
:100E4000AA0BBB0B8093690090936A00A0936B0080
:100E5000B0936C008E819F819093680080936700AF
:100E600082E080936F008FEFB1CF80916D00811190
:100E70000EC08A819B81092E000CAA0BBB0B8093AC
:100E8000690090936A00A0936B00B0936C008E8110
:100E90009F81909368008093670083E080936F0048
:100EA0008FEF94CFFFDC8093720181E08FCF809130
:100EB0006D0081110EC08A819B81092E000CAA0B46
:100EC000BB0B8093690090936A00A0936B00B09372
:100ED0006C008C812D81922F9F709093640090E123
:100EE000299FA001112444275F70840F952F911D25
:100EF000909366008093650020FD809363008E814F
:100F00009F81909368008093670081E080936F00D9
:100F10008FEF5CCF8A819B819093AD018093AC0170
:100F2000C29ABA9A83E078DEC298A99880E174DE0A
:100F30007FDE80E04BCF90917100309170003917C7
:100F400009F437CFA2E7B1E080E0E92FF0E0EE58F6
:100F5000FF4F20812D939F5F8F5F931711F0883093
:100F6000A1F79093710032CF81E080936D008A8168
:100F70009B81AC81BD818093690090936A00A093AE
:100F80006B00B0936C0080E021CF80916D008111E7
:100F90000EC08A819B81092E000CAA0BBB0B80938B
:100FA000690090936A00A0936B00B0936C0010925C
:100FB000660010926500109264008E819F8190936C
:100FC00068008093670084E080936F008FEFFECE0F
:100FD0008A8180936E001092720181E0F7CE80ECDE
:100FE00037DE80E035DE8AE017DEC29A85E014DE67
:100FF000C29885E011DE87B3837D87BB88B3837D8C
:1010000088BBA99A80E0E2CE46DE8093720181E03F
:10101000DDCE8A811DDE80E0D9CE8A819B81092EBA
:10102000000CAA0BBB0B8093690090936A00A093FD
:101030006B00B0936C008E819F81909368008093C9
:10104000670085E080936F008FEFC0CE8A819B811F
:10105000092E000CAA0BBB0B8093690090936A00C9
:10106000A0936B00B0936C008E819F819093680079
:101070008093670086E080936F008FEFA7CE83E0B8
:101080008093720110927301109274011092750195
:1010900084E09CCEF8DB87E080936F0080E096CE02
:1010A000A99ADDDB10926F0080E090CEFF920F9343
:1010B0001F93CF93DF93382F792FF62E20916F0057
:1010C0008EEF820F823028F1253009F062C0462F62
:1010D000632F8091690090916A00F6DD809169002C
:1010E00090916A00A0916B00B0916C008F0D911DE2
:1010F000A11DB11D8093690090936A00A0936B00BD
:10110000B0936C008F2DDF91CF911F910F91FF90C5
:1011100008956623A9F18091690090916A00A091D9
:101120006B00B0916C00C32FD72F0FEF060F0C0F81
:101130001D2F111D1BC02EDD8883809169009091A9
:101140006A00A0916B00B0916C000196A11DB11DC9
:101150008093690090936A00A0936B00B0936C0039
:10116000C017D10751F020916F002196223019F756
:10117000BC01CD01FBDB8883E0CF87E08F1510F247
:1011800010926F008F2DDF91CF911F910F91FF90E3
:101190000895FF24FA948F2DDF91CF911F910F9125
:1011A000FF900895FF920F931F93CF93DF9300D08A
:1011B00000D000D0CDB7DEB7382F792F062F209181
:1011C0006F002130F1F12430E1F1263009F0D5C073
:1011D000462F682F8091690090916A007FDD809191
:1011E000690090916A00A0916B00B0916C00800F33
:1011F000911DA11DB11D8093690090936A00A09379
:101200006B00B0936C008091670090916800801B28
:1012100091099093680080936700892B09F0ABC017
:1012200010926F00FF24F3948F2D26960FB6F8943A
:10123000DEBF0FBECDBFDF91CF911F910F91FF9009
:101240000895002309F497C08091690090916A0085
:10125000A0916B00B0916C003D837E836D817E8197
:101260006F5F7F4F0150060F172F111DF12C52C0D9
:101270002091650030916600232B09F059C021E0D0
:10128000BC01CD01B6DB2091670030916800215090
:101290003109309368002093670080916900909134
:1012A0006A00A0916B00B0916C00232B01F51092A5
:1012B0006F002091640021FF38C0409163002091AD
:1012C0006500309166004217130679F1ED81FE81C9
:1012D00031974081BC01CD01F9DB8091690090918B
:1012E0006A00A0916B00B0916C00FF24F39401960A
:1012F000A11DB11D8093690090936A00A0936B00BB
:10130000B0936C00ED81FE810E171F0709F48CCF9E
:1013100020916F00ED81FE814191FE83ED832130AC
:1013200009F4A6CF642F53DCAECFFF24F394DFCFB4
:1013300020E0BC01CD015DDB809163008150809392
:1013400063008111A0CF8091690090916A00A09103
:101350006B00B0916C0089839A83AB83BC83ED8171
:10136000FE8131974081BC01CD01B0DB80916500E9
:101370008093630088CFF12C57CFFF24FA9454CF89
:1013800012BA18BA8BEF81BB8FEF87BB17BA83E015
:1013900084BB9EEF95BB83BFE0D7789412E0C0E09A
:1013A000D0E886D680916F008730D9F78091AE0162
:1013B0009091AF0101979093AF018093AE01892B7B
:1013C00081F785B3812785BBD093AF01C093AE0170
:0613D000E8CFF894FFCF06
:0213D600FF5ABC
:00000001FF
